0302                1    27122FBP. Micro-Crédit                    Fra.LY1122         0000000000000000)2                                             0000000000 
0602              H354534     VAVA FAFA                                               47687454687425460000000000200000)            LOYER 112022      0065654687 
0602              J207703     ACHENGLI LAILA          Ait souss                       11115087750001200000000000450000)            LOYER 112022      0000101210 
0602              J2545456    JALAL MED               AGG                             45641654764565460000000000720000)            LOYER 112022      0026546345 
0802                                                                                                  0000000001370000                                          