0302                1    17052FBP. Micro-Crédit                    Fra.LY0922         0000000000000000)2                                             0000000000 
0602              D235689     KAMILIA LALA            AG1                             86748615346874360000000002040000)            LOYER 092022      0031456415 
0602              K3544354    ABDOU FAFA                                              67464354867482540000000001135124)            LOYER 092022      0035454858 
0602              L254654     SAMIR DADA              AGG                             86464877454867640000000000238104)            LOYER 092022      0036567452 
0602              L5245475    MORAD JOJO              AG55                            56435467674534650000000001350000)            LOYER 092022      0024535447 
0602              L525655     KHALID RARA                                             64646874687863540000000000540000)            LOYER 092022      0035464767 
0802                                                                                                  0000000005303228                                          