0302                1    11072FBP. Micro-Crédit                    Fra.LY0622         0000000000000000)2                                             0000000000 
0602              11111       zzzzzz                  111                             11111111111111110000000002000000)            LOYER 062022       0011111111 
0602              BB10231     Khalid tawiqi           BMCE TARIQ                      91039488284472840000000000270000)            LOYER 062022       0011029372 
0602              BJ10293     Ahmed tawfiqi           cih maarif                      93849281111111110000000000200000)            LOYER 062022       0011410211 
0602              qqqqqqq     qqqqqqq                                                 11111111111111110000000001700000)            LOYER 062022       0012334211 
0802                                                                                                  0000000004170000                                          