0302                1    12042FBP. Micro-Crédit               Fra.LY0322         0000000000000000)2                                             0000000000 
0602              31451       STE LOCATION            MAARIF                          45646163848946130000000000500000)            LOYER 032022       0031315613 
0602              56987       STE MAISON              2 MARS                          13136548494646130000000000500000)            LOYER 032022       0032265613 
0602              F545467     KAMAL JAMAL             AGENCE BB55                     56631484894615340000000000450000)            LOYER 032022       0036546816 
0602              15365       STE12                   AG1                             21321646131516160000000002775000)            LOYER 032022       0035464616 
0602              654566      STT22                   AG5                             16126546513165480000000003000000)            LOYER 032022       0032165446 
0602              3516546     GTT STE                 AG 555                          16465415641646450000000003000000)            LOYER 032022       0063565441 
0602              O3546845    KHALID VAVA             AG 5                            61364186461315640000000001800000)            LOYER 032022       0032156486 
0602              L3659652    FATIMA FAFA             CASA 556                        93135698489323130000000001140000)            LOYER 032022       0024684821 
0602              K6546841    IMANE FAFA              AGG55                           15614564156416540000000004260000)            LOYER 032022       0031321511 
0602              K2546546    KHADIJA PAPA            RABAT 562                       13141864746315610000000002220000)            LOYER 032022       0034564665 
0602              B3541456    JAJA GAGA               CASA B2                         46413135468144880000000003720000)            LOYER 032022       0035465731 
0602              G364861     MANAL LALA              UHIU528                         46513186486413540000000012750000)            LOYER 032022       0013416518 
0802                                                                                                  0000000036115000                                          