0302                1    05082FBP. Micro-Crédit                    Fra.LY0722         0000000000000000)2                                             0000000000 
0602              K5443645    KHADIJA LALA            AG 100                          56432415878671350000000006950000)            LOYER 072022      0035456444 
0602              L3578354    NABIL KAMAL             AGG1                            54458748574355860000000004400000)            LOYER 072022      0034553473 
0602              D524564     SAMIRA TATA                                             51374854361556740000000004400000)            LOYER 072022      0033546364 
0802                                                                                                  0000000015750000                                          