0302                1    23112FBP. Micro-Crédit                    Fra.LY1022         0000000000000000)2                                             0000000000 
0602              2354656     STE 230                                                 68416548641534860000000001500000)            LOYER 102022      0035468446 
0602              K5443645    KHADIJA LALA            AG 100                          56432415878671350000000000850000)            LOYER 102022      0035456444 
0602              F4767464    MED FARID                                               49646874894364180000000001275000)            LOYER 102022      0035469772 
0602              D524564     SAMIRA TATA                                             51374854361556740000000001700000)            LOYER 102022      0033546364 
0602              P5874857    KARIM JALAL             FES SUD                         64168486746168710000000001700000)            LOYER 102022      0054874853 
0602              K5443645    KHADIJA LALA            AG 100                          56432415878671350000000000432000)            LOYER 102022      0035456444 
0602              L3578354    NABIL KAMAL             AGG1                            54458748574355860000000000648000)            LOYER 102022      0034553473 
0602              M564634     LATIFA FIFA                                             45674886764547680000000001700000)            LOYER 102022      0036463774 
0602              K254546     MANAL JAJA              AGGG8                           76435468743546870000000000450000)            LOYER 102022      0035469848 
0802                                                                                                  0000000010255000                                          