0302                1    13082FBP. Micro-Crédit                    Fra.LY0722         0000000000000000)2                                             0000000000 
0602              BB193467    AHMED TEST                                              35435843543543540000000002550000)            LOYER 072022      0011935435 
0602              BB193467    AHMED TEST                                              35435843543543540000000005100000)            LOYER 072022      0011935435 
0602              BB193467    AHMED TEST                                              35435843543543540000000000850000)            LOYER 072022      0011935435 
0802                                                                                                  0000000008500000                                          