<<<<<<< HEAD
0302                1    16062FBP. Micro-Crédit                    Fra.LY0522         0000000000000000)2                                             0000000000 
0602              134568      STE LOC 1               AG 22                           64768476876435460000000002700000)            LOYER 052022      0034365487 
0602              134568      STE LOC 1               AG 22                           64768476876435460000000000900000)            LOYER 052022      0034365487 
0602              J547865     MARIAM HAHA             AGENCE 55                       64564867445447860000000002550000)            LOYER 052022      0013546478 
0602              J547865     MARIAM HAHA             AGENCE 55                       64564867445447860000000005100000)            LOYER 052022      0013546478 
0602              J547865     MARIAM HAHA             AGENCE 55                       64564867445447860000000001275000)            LOYER 052022      0013546478 
0602              F5685963    JAMAL LALA              AGG77                           64324867425468790000000000850000)            LOYER 052022      0057486775 
0602              F5685963    JAMAL LALA              AGG77                           64324867425468790000000000850000)            LOYER 052022      0057486775 
0602              K546598     KARIMA NADA                                             82136546134967420000000003570000)            LOYER 052022      0035658646 
0602              J254789     SAMIR TATA              AG 11                           46546354698597840000000001620000)            LOYER 052022      0035467865 
0602              K546598     KARIMA NADA                                             82136546134967420000000001190000)            LOYER 052022      0035658646 
0602              J254789     SAMIR TATA              AG 11                           46546354698597840000000000540000)            LOYER 052022      0035467865 
0802                                                                                                  0000000021145000                                          
=======
0302                1    20062FBP. Micro-Crédit                    Fra.LY0522         0000000000000000)2                                             0000000000 
0602              BB193467    AHMED TEST                                              35435843543543540000000001350000)            LOYER 052022      0011935435 
0602              BB193467    AHMED TEST                                              35435843543543540000000000950000)            LOYER 052022      0011935435 
0802                                                                                                  0000000002300000                                          
>>>>>>> 5b7814b474f66b7f7bcdbdd21e97a7022ce80d38
