0302                1    20052FBP. Micro-Crédit                    Fra.LY0822         0000000000000000)2                                             0000000000 
0602              BG432432    TETS TESTS              11                              32131211111111110000000001700000)            LOYER 082022      0032132111 
0602              11986345    ALI EXPRESSE                                            35463456354324350000000003000000)            LOYER 082022      0011468443 
0602              BG12456     HAYLALA ONE             1                               11111111111111110000000000000405)            LOYER 082022      0011111111 
0602              BG196435    HAYLAL TWO              5                               55555555555555550000000000003642)            LOYER 082022      0011465555 
0802                                                                                                  0000000004704047                                          