0302                1    20092FBP. Micro-Crédit                    Fra.LY0822         0000000000000000)2                                             0000000000 
0602              bj123465    Test Tse                6                               31654654654654650000000001700000)            LOYER 082022       0011464979 
0602              BJ123479    KHALID MOUMNI           654                             86521324546987690000000007650000)            LOYER 082022       0011469754 
0602              ada54545    Abdo momi                                               64644646876468880000000000150000)            LOYER 082022       0006545464 
0602              BJ14679     Youssef You                                             16468787777777770000000000850000)            LOYER 082022       0011761377 
0802                                                                                                  0000000010350000                                          