0302                1    27012FBP. Micro-Crédit                    Fra.LY1222         0000000000000000)2                                             0000000000 
0602              J207703     ACHENGLI LAILA          Ait souss                       11115087750001200000000000495000)            LOYER 122022      0000101210 
0602              K6563       UIHYIH OOKOK                                            52645964356546450000000002775000)            LOYER 122022      0065464564 
0602              J2545456    JALAL MED               AGG                             45641654764565460000000000720000)            LOYER 122022      0026546345 
0602              H354534     VAVA FAFA                                               47687454687425460000000000150000)            LOYER 122022      0065654687 
0802                                                                                                  0000000004140000                                          