0302                1    24082FBP. Micro-Crédit                    Fra.LY0722         0000000000000000)2                                             0000000000 
0602              LK354534    MOURAD VAVA                                             45654876413413140000000007040000)            LOYER 072022      0056569631 
0602              L5453746    MERYEM RARA             CASA BB2                        76467476976456780000000000240000)            LOYER 072022      0013656997 
0602              KL254545    LAILA JJJJ                                              46847867445468740000000000324000)            LOYER 072022      0054684687 
0602              M6346854    SAMIA NARA                                              64647685658674680000000000540000)            LOYER 072022      0065464764 
0602              K2574857    NADIA JJEE                                              64435464643165460000000001133333)            LOYER 072022      0034568453 
0602              KL354654    MOUNIR NNNN             MLKPO5                          64646431321654650000000000600000)            LOYER 072022      0035454523 
0602              K5443645    KHADIJA LALA            AG 100                          56432415878671350000000002975000)            LOYER 072022      0035456444 
0802                                                                                                  0000000012852333                                          