0302                1    27112FBP. Micro-Crédit                    Fra.LY1022         0000000000000000)2                                             0000000000 
0602              J2545456    JALAL MED               AGG                             45641654764565460000000000720000)            LOYER 102022      0026546345 
0602              J207703     ACHENGLI LAILA          Ait souss                       11115087750001200000000000450000)            LOYER 102022      0000101210 
0602              BJ36877     CHARIJI ABDELLAH        AOURIR                          11111292695000200000000000540000)            LOYER 102022      0000101217 
0802                                                                                                  0000000001710000                                          