0302                1    16092FBP. Micro-Crédit                    Fra.LY0822         0000000000000000)2                                             0000000000 
0602              aq5146      Mohamed Amine                                           50615463416461310000000000850000)            LOYER 082022       0065454623 
0602              aq5146      Mohamed Amine                                           50615463416461310000000005100000)            LOYER 082022       0065454623 
0602              545444      Ali expresse                                            54101654654564650000000001000000)            LOYER 082022       0065486644 
0602              q666465     Ali Benani                                              45648768768768780000000000850000)            LOYER 082022       0006544667 
0802                                                                                                  0000000007800000                                          