0302                1    13052FBP. Micro-Crédit               Fra.LY0422         0000000000000000)2                                             0000000000 
0602              1021629     LA VIE MAROCAINE IMMOBILIERZOHOUR                          00016000079408250000000002736000)            LOYER 042022       0002278074 
0602              KA197832    KAISSON MOHAMMED        LIGUE ARABE                     02114000553400030000000001295000)            LOYER 042022       0001010116 
0602              QK567894    SAMIRA BENNANI          FLEURS                          41140000553400310000000001295000)            LOYER 042022       0010101265 
0602              LM986745    FATIMA FALAH            MOHAMED V                       00001600007940820000000003300000)            LOYER 042022       0002278057 
0602              LK123456    BENJELLOUN ANDALOUSSI   BADR                            00048550004310540000000000750000)            LOYER 042022       0000734927 
0602              JA199876    ABDELOUAHED BENJELLOUN  BADR                            00048550004310540000000000675000)            LOYER 042022       0000734926 
0602              1250679     MAROC LEASING           LIGUE ARABE                     00027600276002750000000077200000)            LOYER 042022       0002201062 
0802                                                                                                  0000000087251000                                          