0302                1    06032FBP. Micro-Crédit               Fra.LY0222         0000000000000000)2                                             0000000000 
0602              L556555     SASA SASA               RABAT 2                         69456469456949640000000002090000)            LOYER 022022       0036546449 
0602              H356655     PAPA LALA               CASA LL2                        46464318461323680000000004260000)            LOYER 022022       0036464646 
0602              H456464     LALA MED                RABAT 32                        54613164613156840000000018000000)            LOYER 022022       0032365665 
0602              L5548712    MAMA MAM                                                23322323232323230000000016200000)            LOYER 022022       0065498623 
0602              M3546446    MED MEDD                                                65656565656565650000000004550000)            LOYER 022022       0023265665 
0602              P3566465    VAVA VAVA                                               68461654964616540000000008100000)            LOYER 022022       0031654596 
0802                                                                                                  0000000053200000                                          