0302                1    05092FBP. Micro-Crédit                    Fra.LY0822         0000000000000000)2                                             0000000000 
0602              P5874857    KARIM JALAL             FES SUD                         64168486746168710000000004400000)            LOYER 082022      0054874853 
0602              L3578354    NABIL KAMAL             AGG1                            54458748574355860000000000850000)            LOYER 082022      0034553473 
0602              K5443645    KHADIJA LALA            AG 100                          56432415878671350000000000850000)            LOYER 082022      0035456444 
0802                                                                                                  0000000006100000                                          