0302                1    21062FBP. Micro-Crédit                    Fra.LY0522         0000000000000000)2                                             0000000000 
0602              J2545456    JALAL MED               AGG                             45641654764565460000000001400000)            LOYER 052022      0026546345 
0602              BJ36877     CHARIJI ABDELLAH        AOURIR                          11111292695000200000000000630000)            LOYER 052022      0000101217 
0602              354646      SOCIETE 1               Agence 1                        46446464646464440000000000240000)            LOYER 052022      0054544644 
0602              J207703     ACHENGLI LAILA          Ait souss                       11115087750001200000000001700000)            LOYER 052022      0000101210 
0802                                                                                                  0000000003970000                                          