0302                1    22072FBP. Micro-Crédit                    Fra.LY0622         0000000000000000)2                                             0000000000 
0602              K5443645    KHADIJA LALA            AG 100                          56432415878671350000000007800000)            LOYER 062022      0035456444 
0602              F4767464    MED FARID                                               49646874894364180000000001275000)            LOYER 062022      0035469772 
0602              D524564     SAMIRA TATA                                             51374854361556740000000001700000)            LOYER 062022      0033546364 
0602              P5874857    KARIM JALAL             FES SUD                         64168486746168710000000001700000)            LOYER 062022      0054874853 
0602              L3578354    NABIL KAMAL             AGG1                            54458748574355860000000000648000)            LOYER 062022      0034553473 
0802                                                                                                  0000000013123000                                          