0302                1    06062FBP. Micro-Cr√©dit                    Fra.LY0522         0000000000000000)2                                             0000000000 
0602              110384      real madrid fc                                          48574857839487390000000001830000)            LOYER 052022       0011429848 
0602              BJ49785     Anas tawfiqi            cih                             79786584625321360000000002850000)            LOYER 052022       0011964987 
0802                                                                                                  0000000004680000                                          