0302                1    14052FBP. Micro-Crédit               Fra.LY0422         0000000000000000)2                                             0000000000 
<<<<<<< HEAD
0602              1021629     LA VIE MAROCAINE IMMOBILIERZOHOUR                          00016000079408250000000002736000)            LOYER 042022       0002278074 
0602              KA197832    KAISSON MOHAMMED        LIGUE ARABE                     02114000553400030000000001295000)            LOYER 042022       0001010116 
0602              QK567894    SAMIRA BENNANI          FLEURS                          41140000553400310000000001295000)            LOYER 042022       0010101265 
0602              LM986745    FATIMA FALAH            MOHAMED V                       00001600007940820000000003300000)            LOYER 042022       0002278057 
0602              LK123456    BENJELLOUN ANDALOUSSI   BADR                            00048550004310540000000000750000)            LOYER 042022       0000734927 
0602              JA199876    ABDELOUAHED BENJELLOUN  BADR                            00048550004310540000000000675000)            LOYER 042022       0000734926 
0602              1250679     MAROC LEASING           LIGUE ARABE                     00027600276002750000000077200000)            LOYER 042022       0002201062 
0802                                                                                                  0000000087251000                                          
=======
0602              654566      STT22                   AG5                             16126546513165480000000001500000)            LOYER 042022       0032165446 
0602              L3546465    ZAZA EELA               AGGG89                          74316413213236540000000000540000)            LOYER 042022       0042468461 
0602              K5346431    SARA ELLLL              AGGGGYYY6655                    59878976331214540000000001190000)            LOYER 042022       0013236468 
0602              354653      STE 663                 AGG4455                         56431354684786740000000000500000)            LOYER 042022       0034546331 
0602              H6356525    AVENT LLLL              AGGGTTT3563                     46853213654643150000000000450000)            LOYER 042022       0032145668 
0602              3546546     LOCATION 55                                             45646464648947560000000001000000)            LOYER 042022       0036546514 
0602              35486464    KJIKHIUHI                                               89462156489461560000000001000000)            LOYER 042022       0035256416 
0602              J5498456    MORAD FFFF              AGGTT 669                       49465654654646540000000004440000)            LOYER 042022       0036848964 
0602              J5648645    SALMA KJLJOIO           LKOK                            26526984526325960000000006660000)            LOYER 042022       0054986585 
0602              K53464      KLJKLJ L                                                63654564148979160000000003400000)            LOYER 042022       0032468468 
0602              L5676815    LKLKL IJIO                                              16879846354987410000000002550000)            LOYER 042022       0035465465 
0802                                                                                                  0000000023230000                                          
>>>>>>> 792e8e95f4592904c35df44a6ff24987f50b0191
