0302                1    16082FBP. Micro-Crédit                    Fra.LY0722         0000000000000000)2                                             0000000000 
0602              R35456      KAMAL SAMIR                                             58788575646345640000000000450000)            LOYER 072022       0054454878 
0602              H2356889    kamal lolo              casa 55                         41356546854315340000000000360000)            LOYER 072022       0032655668 
0602              D5458486    samia nabil                                             44165486478476410000000000270000)            LOYER 072022       0065486556 
0602              H3835832    LATIFA LALA                                             78515711845540220000000000270000)            LOYER 072022       0045875653 
0802                                                                                                  0000000001350000                                          