0302                1    16102FBP. Micro-Cr√©dit                    Fra.LY0922         0000000000000000)2                                             0000000000 
0602              aq5146      Mohamed Amine                                           50615463416461310000000000850000)            LOYER 092022       0065454623 
0602              aq5146      Mohamed Amine                                           50615463416461310000000005100000)            LOYER 092022       0065454623 
0802                                                                                                  0000000005950000                                          