0302                1    09062FBP. Micro-Cr√©dit                    Fra.LY0522         0000000000000000)2                                             0000000000 
0602              BG1949      Ahmed Test              bmce                            46578787875462540000000000850000)            LOYER 052022       0011716532 
0602              110384      real madrid fc                                          48574857839487390000000001830000)            LOYER 052022       0011429848 
0802                                                                                                  0000000002680000                                          