0302                1    11062FBP. Micro-Crédit                    Fra.LY0522         0000000000000000)2                                             0000000000 
0602              R35456      KAMAL SAMIR                                             58788575646345640000000000950000)            LOYER 052022       0054454878 
0602              35465       STE NORD 1                                              56441547482435450000000002000000)            LOYER 052022       0046465467 
0602              J3546543    lamyae nada             CASA 5                          31265497413548630000000001080000)            LOYER 052022       0031464618 
0602              H2356889    kamal lolo              casa 55                         41356546854315340000000000720000)            LOYER 052022       0032655668 
0802                                                                                                  0000000004750000                                          