0302                1    16102FBP. Micro-Cr√©dit                    Fra.LY0922         0000000000000000)2                                             0000000000 
0602              35465       STE NORD 1                                              56441547482435450000000002000000)            LOYER 092022       0046465467 
0602              F4755545    NADIA LAla                                              63546536476346470000000001045000)            LOYER 092022       0035654364 
0802                                                                                                  0000000003045000                                          