0302                1    20012FBP. Micro-Crédit                    Fra.LY1222         0000000000000000)2                                             0000000000 
0602              BJ123479    KHALID MOUMNI           654                             86521324546987690000000007650000)            LOYER 122022       0011469754 
0602              ada54545    Abdo momi                                               64644646876468880000000000150000)            LOYER 122022       0006545464 
0602              BB14852     Ahmed tadlaoui          4125                            25658955488966630000000001850000)            LOYER 122022       0011456333 
0802                                                                                                  0000000009650000                                          