0302                1    20052FBP. Micro-Crédit                    Fra.LY0422         0000000000000000)2                                             0000000000 
0602              J207703     ACHENGLI LAILA          Ait souss                       11115087750001200000000001700000)            LOYER 042022      0000101210 
0602              354646      SOCIETE 1               Agence 1                        46446464646464440000000000240000)            LOYER 042022      0054544644 
0602              BJ36877     CHARIJI ABDELLAH        AOURIR                          11111292695000200000000000630000)            LOYER 042022      0000101217 
0802                                                                                                  0000000002570000                                          