0302                1    22052FBP. Micro-Crédit                    Fra.LY0422         0000000000000000)2                                             0000000000 
0602              ad646456    Mimo crimo                                              41564006454546560000000000540000)            LOYER 042022       0036516554 
0602              aa654556    Ali Ali                                                 50510051665465650000000000200000)            LOYER 042022       0056656445 
0602              ada666      Mohamed berrada                                         46788764654564050000000000450000)            LOYER 042022       0003216545 
0602              117946464   IBM                     BMCE TESTT                      87777777777777770000000005850000)            LOYER 042022       0011487977 
0802                                                                                                  0000000007040000                                          