0302                1    27072FBP. Micro-Crédit                    Fra.LY0622         0000000000000000)2                                             0000000000 
0602              BB193467    AHMED TEST                                              35435843543543540000000003000000)            LOYER 062022      0011935435 
0602              BJ123457    DEV TEST                TEST                            54687897986546540000000002000000)            LOYER 062022      0011145465 
0602              BB193467    AHMED TEST                                              35435843543543540000000000850000)            LOYER 062022      0011935435 
0802                                                                                                  0000000005850000                                          