0302                1    13062FBP. Micro-Cr√©dit                    Fra.LY0522         0000000000000000)2                                             0000000000 
0602              545444      Ali expresse                                            54101654654564650000000002000000)            LOYER 052022       0065486644 
0602              q666465     Ali Benani                                              45648768768768780000000001850000)            LOYER 052022       0006544667 
0802                                                                                                  0000000003850000                                          