0302                1    20052FBP. Micro-Cr√©dit                    Fra.LY0422         0000000000000000)2                                             0000000000 
0602              bj123465    Test Tse                6                               31654654654654650000000007100000)            LOYER 042022       0011464979 
0602              BJ12348     Ahmed laaraichi         BMCE BNIMAKADA                  13467978523215640000000016650000)            LOYER 042022       0011467968 
0802                                                                                                  0000000023750000                                          