0302                1    05102FBP. Micro-Crédit                    Fra.LY0922         0000000000000000)2                                             0000000000 
0602              K5443645    KHADIJA LALA            AG 100                          56432415878671350000000000850000)            LOYER 092022      0035456444 
0602              L3578354    NABIL KAMAL             AGG1                            54458748574355860000000000850000)            LOYER 092022      0034553473 
0602              D524564     SAMIRA TATA                                             51374854361556740000000000850000)            LOYER 092022      0033546364 
0802                                                                                                  0000000002550000                                          