0302                1    24112FBP. Micro-Crédit                    Fra.LY1022         0000000000000000)2                                             0000000000 
0602              L5453746    MERYEM RARA             CASA BB2                        76467476976456780000000000810000)            LOYER 102022      0013656997 
0602              KL254545    LAILA JJJJ                                              46847867445468740000000001215000)            LOYER 102022      0054684687 
0602              354643      STE LOC 10              CASA 2                          41687468789435150000000002250000)            LOYER 102022      0065687634 
0602              K2574857    NADIA JJEE                                              64435464643165460000000003399999)            LOYER 102022      0034568453 
0602              F4767464    MED FARID                                               49646874894364180000000000500001)            LOYER 102022      0035469772 
0602              M564634     LATIFA FIFA                                             45674886764547680000000001350000)            LOYER 102022      0036463774 
0602              K5443645    KHADIJA LALA            AG 100                          56432415878671350000000002975000)            LOYER 102022      0035456444 
0802                                                                                                  0000000012500000                                          