0302                1    15062FBP. Micro-Crédit               Fra.LY0522         0000000000000000)2                                             0000000000 
0602              3546546     LOCATION 55                                             45646464648947560000000001000000)            LOYER 052022       0036546514 
0602              35486464    KJIKHIUHI                                               89462156489461560000000001000000)            LOYER 052022       0035256416 
0602              J5248541    MADIHA LLL              KLJ200                          84878845648748650000000001275000)            LOYER 052022       0087485446 
0602              f548561     karima ggfff                                            36186478932156460000000001020000)            LOYER 052022       0056486421 
0802                                                                                                  0000000004295000                                          