0302                1    13052FBP. Micro-Crédit               Fra.LY0422         0000000000000000)2                                             0000000000 
0602              31451       STE LOCATION            MAARIF                          45646163848946130000000000500000)            LOYER 042022       0031315613 
0602              56987       STE MAISON              2 MARS                          13136548494646130000000000500000)            LOYER 042022       0032265613 
0602              654566      STT22                   AG5                             16126546513165480000000001500000)            LOYER 042022       0032165446 
0602              F354654     SARA DADA               RABAT AGDAL                     63135168489489970000000003700000)            LOYER 042022       0036546461 
0602              O3546845    KHALID VAVA             AG 5                            61364186461315640000000000900000)            LOYER 042022       0032156486 
0602              F6546856    KARIMA NANA                                             16541648512698440000000000540000)            LOYER 042022       0054765416 
0802                                                                                                  0000000007640000                                          