0302                1    13092FBP. Micro-Crédit                    Fra.LY0822         0000000000000000)2                                             0000000000 
0602              H2356889    kamal lolo              casa 55                         41356546854315340000000002320000)            LOYER 082022       0032655668 
0602              F4755545    NADIA LAla                                              63546536476346470000000001850000)            LOYER 082022       0035654364 
0602              H3835832    LATIFA LALA                                             78515711845540220000000001344000)            LOYER 082022       0045875653 
0602              L3543463    FATIMA GAGA                                             64741546874413210000000000896000)            LOYER 082022       0034564868 
0802                                                                                                  0000000006410000                                          