0302                1    27032FBP. Micro-Crédit                    Fra.LY0223         0000000000000000)2                                             0000000000 
0602              J207703     ACHENGLI LAILA          Ait souss                       11115087750001200000000000540000)            LOYER 022023      0000101210 
0602              K6563       UIHYIH OOKOK                                            52645964356546450000000001700000)            LOYER 022023      0065464564 
0602              J2545456    JALAL MED               AGG                             45641654764565460000000000720000)            LOYER 022023      0026546345 
0602              H354534     VAVA FAFA                                               47687454687425460000000000150000)            LOYER 022023      0065654687 
0602              BJ36877     CHARIJI ABDELLAH        AOURIR                          11111292695000200000000000540000)            LOYER 022023      0000101217 
0802                                                                                                  0000000003650000                                          