0302                1    22062FBP. Micro-Crédit                    Fra.LY0522         0000000000000000)2                                             0000000000 
0602              K5443645    KHADIJA LALA            AG 100                          56432415878671350000000001776000)            LOYER 052022      0035456444 
0602              L3578354    NABIL KAMAL             AGG1                            54458748574355860000000002664000)            LOYER 052022      0034553473 
0602              P5874857    KARIM JALAL             FES SUD                         64168486746168710000000006800000)            LOYER 052022      0054874853 
0602              2354656     STE 230                                                 68416548641534860000000006000000)            LOYER 052022      0035468446 
0602              D524564     SAMIRA TATA                                             51374854361556740000000008800000)            LOYER 052022      0033546364 
0602              F4767464    MED FARID                                               49646874894364180000000010425000)            LOYER 052022      0035469772 
0802                                                                                                  0000000036465000                                          