0302                1    16072FBP. Micro-Cr√©dit                    Fra.LY0622         0000000000000000)2                                             0000000000 
0602              35465       STE NORD 1                                              56441547482435450000000002000000)            LOYER 062022       0046465467 
0602              R35456      KAMAL SAMIR                                             58788575646345640000000000450000)            LOYER 062022       0054454878 
0802                                                                                                  0000000002450000                                          