0302                1    30092FBP. Micro-Crédit                    Fra.LY0823         0000000000000000)2                                             0000000000 
0602              J5454525    LALA NANA                                               46543153468464660000000010200000)            LOYER 082023      0033236566 
0602              L5453746    MERYEM RARA             CASA BB2                        76467476976456780000000006840000)            LOYER 082023      0013656997 
0602              K254546     MANAL JAJA              AGGG8                           76435468743546870000000002775000)            LOYER 082023      0035469848 
0602              L3563563    ALAAL JAJA                                              65487435416874860000000000540000)            LOYER 082023      0056464544 
0602              L5453746    MERYEM RARA             CASA BB2                        76467476976456780000000000270000)            LOYER 082023      0013656997 
0602              KL254545    LAILA JJJJ                                              46847867445468740000000000405000)            LOYER 082023      0054684687 
0602              354643      STE LOC 10              CASA 2                          41687468789435150000000000750000)            LOYER 082023      0065687634 
0602              K2574857    NADIA JJEE                                              64435464643165460000000001133333)            LOYER 082023      0034568453 
0602              F4767464    MED FARID                                               49646874894364180000000000166667)            LOYER 082023      0035469772 
0602              M564634     LATIFA FIFA                                             45674886764547680000000000450000)            LOYER 082023      0036463774 
0802                                                                                                  0000000023530000                                          