0302                1    20052FBP. Micro-Crédit                    Fra.LY1222         0000000000000000)2                                             0000000000 
0602              D235689     KAMILIA LALA            AG1                             86748615346874360000000002295000)            LOYER 122022      0031456415 
0602              K3544354    ABDOU FAFA                                              67464354867482540000000001277015)            LOYER 122022      0035454858 
0602              L254654     SAMIR DADA              AGG                             86464877454867640000000000267867)            LOYER 122022      0036567452 
0602              L5245475    MORAD JOJO              AG55                            56435467674534650000000001350000)            LOYER 122022      0024535447 
0602              L525655     KHALID RARA                                             64646874687863540000000000540000)            LOYER 122022      0035464767 
0602              K324554     KARIMA SASA             AGGTT                           74875457487564150000000002720000)            LOYER 122022      0036546834 
0602              IL12254     FARIDA VAVA                                             86735469786535450000000000720000)            LOYER 122022      0035468748 
0802                                                                                                  0000000009169882                                          